:030000000208896A
:0C088900787FE4F6D8FD7581200208009D
:10084F00E4FFFEE4FDFC0DBD00010CED64644C7093
:0C085F00F50FBF00010EEF64C84E70E7FB
:01086B00226A
:10086C00E4FFFEE4FDFC0DBD00010CED64644C7076
:0C087C00F50FBF00010EBE01EABF90E7BF
:01088800224D
:10080000D20075A0FF7590FFE5A0540FFB640F6048
:1008100037300034C200EB24F9602624FC60192430
:10082000FE600C147022C29012084FD2908019C240
:100830009112084FD2918010C29212086CD292800D
:0F08400007C29312086CD293BB0FBDD20080B9D0
:00000001FF
